:020000040800F2
:10000000000001204D9D000895330008973300083B
:10001000993300089B3300089D330008000000005E
:1000200000000000000000000000000071920008C5
:100030009F3300080000000011930008559300084A
:10004000959D0008959D0008959D0008959D0008C8
:10005000959D0008959D0008A1330008AB3300086A
:10006000B5330008BF330008959D0008959D000832
:10007000C9330008959D0008959D0008959D0008CE
:10008000959D0008959D0008959D0008959D000888
:10009000D9330008959D0008959D0008959D00089E
:1000A000959D0008959D0008959D0008959D000868
:1000B000E9330008959D0008959D0008959D00086E
:1000C000959D0008959D0008959D0008959D000848
:1000D000959D0008959D0008959D0008959D000838
:1000E000F9330008959D0008959D0008959D00082E
:1000F000959D0008959D0008959D0008959D000818
:10010000959D0008959D0008959D0008959D000807
:10011000959D0008959D000805340008959D0008F0
:10012000959D0008959D0008959D0008959D0008E7
:1001300000000000000000000000000000000000BF
:1001400000000000000000000000000000000000AF
:10015000000000000000000000000000000000009F
:10016000000000000000000000000000000000008F
:10017000000000000000000000000000000000007F
:10018000000000000000000000000000000000006F
:10019000000000000000000000000000000000005F
:1001A000000000000000000000000000000000004F
:1001B000000000000000000000000000000000003F
:1001C000000000000000000000000000000000002F
:1001D000000000000000000000000000000000001F
:0401E0005FF8E0F1F3
:1001F0000348044B834202D0034B03B118477047B6
:10020000500300205003002000000000054806496C
:100210000B1AD90F01EBA301491002D0034B03B114
:1002200018477047500300205003002000000000D2
:1002300010B5064C237843B9FFF7DAFF044B13B12E
:100240000448AFF300800123237010BD5003002049
:1002500000000000989D000808B5044B1BB104493C
:100260000448AFF30080BDE80840CFE7000000007D
:1002700054030020989D000870B50D4E0D4D761B5F
:10028000B61006D00024013455F8043B9847A64226
:10029000F9D1094E094D09F07FFD761BB61006D045
:1002A0000024013455F8043B9847A642F9D170BDAB
:1002B00074AD000874AD000878AD000874AD000896
:1002C000024B0146186800F08BB900BF0000002007
:1002D000024B0146186800F02FB900BF0000002053
:1002E000844641EA000313F0030349D1403A23D383
:1002F0000B6803604B6843608B688360CB68C360A6
:100300000B6903614B6943618B698361CB69C3618D
:100310000B6A03624B6A43628B6A8362CB6AC36275
:100320000B6B03634B6B43638B6B8363CB6BC3635D
:1003300040304031403ADBD230320BD30B6803609F
:100340004B6843608B688360CB68C36010301031AA
:10035000103AF3D20C3205D351F8043B40F8043B79
:10036000043AF9D2043208D0D2071CBF11F8013B7D
:1003700000F8013B01D30B8803806046704700BF43
:10038000082A13D38B07B1D010F00303AED0C3F10A
:100390000403D21ADB071CBF11F8013B00F8013B34
:1003A000A4D331F8023B20F8023B9FE7043AD9D3AB
:1003B000013A11F8013B00F8013BF9D20B780370C8
:1003C0004B7843708B788370604670478842F0B4F6
:1003D0000DD98B1883420AD9841832B1224613F8FA
:1003E000014D994202F8014DF9D1F0BC70470F2A36
:1003F0000ED80346541E002AF7D001340C44013BAA
:1004000011F8012BA14203F8012FF9D1F0BC70477C
:1004100040EA01039B073AD1A2F110073F0901F11D
:10042000200606EB071601F1100300F1100453F843
:10043000105C103344F8105C53F81C5C103444F822
:100440001C5C53F8185C44F8185C53F8145CB34215
:1004500044F8145CEBD17B1C1B0112F00C0F194407
:1004600002F00F05034415D00E46043DAD0803EB22
:10047000850C1C1F56F8047B44F8047F6445F9D1B1
:100480000135AD002B44294402F00302B2E7541EAB
:100490000346B2E72A46ADE7F0B4860746D0541EBD
:1004A000002A3CD0CAB2034602E014F1FF3436D32E
:1004B00003F8012B9D07F8D1032C29D9CDB245EAC9
:1004C00005250F2C45EA054533D9A4F11006360958
:1004D00003F1200707EB061703F1100242E9045568
:1004E00042E902551032BA42F8D1721C14F00C0FD6
:1004F00003EB021204F00F0613D0331F23F00303A3
:100500000433134442F8045B9342FBD106F0030426
:100510002CB1C9B21C4403F8011B9C42FBD1F0BCB6
:10052000704734461346002CF3D1F8E714460346CF
:10053000C2E71A462646E0E700293AD038B551F816
:10054000043C0C1F002BB8BFE418054600F070F9FE
:10055000224B1A682AB1A2420DD921686018824242
:1005600021D0626028461C60BDE8384000F062B9C6
:10057000A34203D81A465368002BF9D111685018CA
:10058000A04217D022D821686018834203BFD3E964
:1005900000030918C4E90013636054602846BDE8ED
:1005A000384000F047B9D2E900020144C4E9001222
:1005B000D8E7704720680144501883421160EDD19C
:1005C000D3E900030144C2E90013E7E70C232846FE
:1005D0002B60BDE8384000F02DB900BF6C0300204F
:1005E000F8B5CD1C25F0030508350C2D38BF0C25BA
:1005F000002D064633DBA94231D82A4F00F018F906
:100600003A6852B113685B1B04D43FE023685B1B5C
:1006100029D522465468002CF8D1796800293BD0AE
:100620002946304600F040F8431C28D0C41C24F072
:100630000304A04205D0211A304600F035F80130FD
:100640001DD02560304600F0F5F804F10B0020F0D5
:100650000700231DC21A01D01B1AA350F8BD0C229B
:1006600000203260F8BD0B2B05D8A242636811D080
:100670005360E7E7144623601C442560E2E70C233F
:100680003046336000F0D6F80020F8BD0B2BF1D8CF
:10069000144653683B60D5E7304600F005F87860B3
:1006A000BEE700BF6C03002038B50023064C0546AA
:1006B0000846236000F0B0FD431C00D038BD23681D
:1006C000002BFBD02B6038BD2028002008B430B5AB
:1006D000002A9CB0044633DB4FF40273029106916A
:1006E000ADF814304FF6FF7120AD16D0013A0492E8
:1006F0000792ADF816101F9A2B4602A9019500F03B
:1007000079F9421C01DA8B2323600022029B1A70C4
:100710001CB0BDE8304001B070472B4604920792F0
:10072000ADF816101F9A02A9019500F063F9431C59
:1007300001DA8B2323601CB0BDE8304001B0704764
:100740008B224FF0FF302260F5E700BF0CB430B5CC
:100750001F4B00299DB01C6835DB4FF402730290DB
:100760000690ADF814304FF6FF7021AD17D0013967
:10077000209A04910791ADF816002B4602A9204655
:10078000019500F037F9421C01DA8B232360002227
:10079000029B1A701DB0BDE8304002B070472B4676
:1007A00004910791ADF81600209A02A92046019500
:1007B00000F020F9431C01DA8B2323601DB0BDE853
:1007C000304002B070478B234FF0FF302360F5E7D5
:1007D0000000002020F0030110F00300C0F1000031
:1007E00051F8043B00F1040C4FEACC0C6FF000020E
:1007F0001CBF22FA0CF213434FF0010C4CEA0C2CF4
:100800004CEA0C4CA3EB0C0222EA030212EACC12D3
:1008100004BF51F8043B0430F4D0C2F1000102EAF5
:100820000102B2FA82F2C2F11F0200EBD20070475D
:10083000704700BF704700BF2DE9F0478E688046C3
:100840009E420C461D461746086836D8B1F80CC0C3
:100850001CF4906F0DD135462A463946FFF7B6FD98
:100860000020A2682368961B2B44A6602360BDE885
:10087000F087D1E9041606EB460606EBD676A0EB28
:100880000109013376104B44B342324684BF1E4601
:1008900032461CF4806F12D011464046FFF7A0FE8E
:1008A000824600B34A462169FFF71AFDA38923F463
:1008B000906343F08003A38106E01E46CCE74046E8
:1008C00000F0F8FB824650B1A6EB09030AEB0900E1
:1008D0006661C4F810A02060A3602E46BCE72169C1
:1008E0004046FFF729FE0C23C8F80030A3894FF0DB
:1008F000FF3043F04003A381B9E700BF2DE9F04F7B
:10090000936883B09046002B6DD0176882460C46E2
:10091000086808378D6843E0A38913F4906F2ED0E0
:10092000D4E9041505EB4505A0EB010B05EBD575E6
:100930000BEB06006D100130A8422A4684BF054625
:100940002A465B0536D511465046FFF749FE00287A
:100950003AD05A4621690190FFF7C2FCA289019B57
:1009600022F4906242F08002A281A5EB0B0203EB1D
:100970000B006561B346354623612060A2605A468C
:100980004946FFF723FDD8F80830A2682068551BB8
:1009900058449E1BA5602060C8F808601EB3083745
:1009A00057E90296AB46002EF9D0AE42B4D2354696
:1009B000B346E4E7504600F07DFB03460028D4D15F
:1009C00021695046FFF7B8FD0C2300224FF0FF309D
:1009D000CAF80030A38943F04003A381C8E901228B
:1009E00003B0BDE8F08F0020C8F8040003B0BDE8F4
:1009F000F08F00BF2DE9F04F8B4689899FB00C0620
:100A00009046029004D5DBF81020002A00F00D81FA
:100A1000002020213022059398F8003001270B9008
:100A20008DF831108C4E8DF83220002B00F086802E
:100A3000252B00F0F880454603E0252B00F0888048
:100A400025466B786C1C002BF7D1B4EB080A75D0E7
:100A50004246534659460298FFF7EEFE01306DD0EC
:100A60000B9B6A7853440B93002A67D000234FF006
:100A7000FF3201340693CDE908338DF85B301C93C7
:100A8000079206E02C46069B801B07FA00F01843ED
:100A900006902546052215F8011B304600F0C4FAE1
:100AA000AA460028EED1069BD90644BF20228DF825
:100AB0005B201A0748BF2B22217848BF8DF85B20A6
:100AC0002A2949D1059A11680432002905927FDB51
:100AD00009916178A51C2E2957D0604C032220462D
:100AE00000F0A2FA002869D04022069B001B02FAFF
:100AF00000F00343069305F101082B7806221946FE
:100B000057488DF8303000F08FFA002866D0554BEA
:100B1000002B56D005AB00935A46534B06A90298BA
:100B2000AFF300808146B9F1FF3F07D00B9B4B44E8
:100B30000B9398F80030002B7FF47AAFBBF80C30A1
:100B40005B064CBF4FF0FF300B981FB0BDE8F08F35
:100B5000B4EB080A8AD07BE7A1F13002092A88BFEA
:100B6000A246B8D8099B01E02C460135297803EB51
:100B7000830302EB4303A1F13002092AAA46F3D909
:100B80002E2904F102050993A7D19AF801102A2908
:100B90002ED1059B0AF102001A680433002A07923D
:100BA00005939AF802100AF1030537DB2B4C8246B5
:100BB0000322204600F038FA002895D1A846554671
:100BC0009BE7059B073323F0070308330593ADE745
:100BD000494243F00203099106937AE705AB00937B
:100BE0005A46214B06A9029800F0D4F881469AE7AC
:100BF0000023A1F13002092A079301D923E05546C9
:100C0000697803EB830302EB4303A1F13002092A65
:100C100005F1010AF3D9023507935EE74FF0FF3380
:100C20008246079359E7444620E740210393FFF7A4
:100C3000D7FC039BCBF80000CBF8100030B140226A
:100C4000CBF81420E4E6AA46013546E70C23029AC5
:100C50004FF0FF30136078E738AD000840AD000872
:100C600044AD000800000000390800082DE9F047F5
:100C70000C460969A56891468D42B8BF0D461560BE
:100C800094F8431006461F46DDF8208011B16A1C17
:100C9000C9F80020236899065CD5D9F800200232F3
:100CA000C9F80020236813F0060F19461DD1E1682A
:100CB0008A1A002AD8BF194617DD002504F1190A3F
:100CC00005E0E368D9F800209B1AAB420CDD012354
:100CD000524639463046C047013005F10105F0D192
:100CE0004FF0FF30BDE8F087216894F843300033BF
:100CF00018BF01238A060AD53021E21882F8431072
:100D000094F845105A1C224482F84310023304F12F
:100D1000430239463046C0470130E1D02368A2681B
:100D200003F00603042B21691DD08A4226DD4FF013
:100D30000009521A914400251A3401E04D451DDA8C
:100D40000123224639463046C047013005F10105EE
:100D5000F4D1C5E713F0060F13D094F843300033F5
:100D600018BF0123D3E7D9F80000E3688A42A3EB58
:100D7000000323EAE379DCDC002BDCDC0020BDE8A7
:100D8000F087E168D9F800208A1A002AD8BF1946EE
:100D900093DCAAE72DE9F0430C46097E85B06E2965
:100DA00006461746984604F1430C0C986DD039D985
:100DB000732900F0F48044D9752900F00281782964
:100DC00040F00F8178232268DFF854E284F8453040
:100DD0000168150651F8043B016040F1A180D1077C
:100DE00044BF42F020022260002B00F093801022CA
:100DF000002184F8431060680028A060C0F2C6801B
:100E0000216821F004012160002B40F0A28000281D
:100E100040F0BE806546082A00F0AB80ACEB0503CD
:100E2000236141E0632900F0E3801AD8002938D01B
:100E3000582940F0D68084F845102268DFF8E4E1B4
:100E4000C6E76F2900F0BD80702940F0CA80782382
:100E50002268DFF8CCE142F02002226084F84530BD
:100E6000B6E7642902D0692940F0BB802268036894
:100E7000110603F1040557D5196805600B460029D2
:100E800059DB0A22DFF89CE1B5E7036822681D1DE3
:100E90006169056015061B6802D4500600F1BB802D
:100EA0001960002365462361CDF800803B4603AA04
:100EB00021463046FFF7DAFE013020D02A4623696A
:100EC00039463046C047013019D02268039892074E
:100ED000E36819D51A1A002A16DD002504F119094C
:100EE00004E0E36803981A1AAA420DDD01234A467A
:100EF00039463046C047013005F10105F1D14FF0C8
:100F0000FF3005B0BDE8F0839842B8BF184605B081
:100F1000BDE8F0832168102221F02001216067E7FD
:100F2000500648BF9BB25AE75106A5D5B3F9003029
:100F300005601946A3E72D2061685B42002984F80B
:100F40004300A16002DB22F0040222600A22DFF8E3
:100F5000D4E0654600E00B46B3FBF2F102FB113032
:100F60001EF80000934205F8010DF4D2082A7FF420
:100F700055AF2368DB077FF551AF626823699A425A
:100F80003FF74CAF3023013D2B7047E7002BE0D1FA
:100F90009EF8003004F1420584F842303BE70368D4
:100FA0006268191D01601D680021284600F03CF8A8
:100FB000002832D0401B60602061002384F8433059
:100FC00072E72268036812F0800F03F104051AD05B
:100FD0001B6805606F290CBF08220A22DFF844E075
:100FE00006E7012384F84210236104F14205E4E797
:100FF0000122036804F14205191D1B68016084F891
:1010000042302261D9E712F0400F0DBF1B68056026
:101010001B880560DEE7198043E76068CCE700BF06
:1010200060AD00084CAD0008830770B4CDB23DD070
:10103000541E0AB30378AB421FD0431C05E014F1E1
:10104000FF3419D30278AA4217D013F0030F1846C1
:1010500003F10103F3D1032C11D84CB30378AB4255
:101060000BD00444431C02E00278AA4205D09C4203
:10107000184603F10103F7D1002070BC7047024607
:101080000E02B6B22E4346EA064613681046734077
:10109000A3F1013121EA030313F0803F02F10402BE
:1010A000DCD1043C032C1046EFD8D6E71446D2E737
:1010B0002046E2E709B3F8B51446CAB106460D4624
:1010C00000F01EF8A04202D32F463846F8BD214654
:1010D0003046FFF785FA07460028F6D02246294613
:1010E000FFF7FEF830462946FFF726FA3846F8BDE6
:1010F0002746FFF721FA3846F8BD1146FFF770BAC8
:1011000051F8043C181F002BBCBF0B58C018704787
:10111000C1F30A522DE9F041A2F2FF36132E0B461D
:101120000D460446074634DC002E1FDB384A42FADF
:1011300006F808EA0102024330D033A3D3E90023C2
:1011400000F07EF80022002300F0AEFA48B1002D36
:1011500004DD4FF4801343FA06F63544002725EAF0
:1011600008053C4629462046BDE8F08126A3D3E980
:10117000002300F065F80022002300F095FA002813
:10118000EFD0002D3ADB55EA040733D00027214D7C
:10119000E7E7332E06DDB6F5806F26D019462046E8
:1011A000BDE8F0814FF0FF38A2F2134228FA02F8AE
:1011B00018EA000FF2D014A3D3E9002300F040F89E
:1011C0000022002300F070FA0028CAD0002D09DDAB
:1011D000142E11D00123C6F1340603FA06F637198E
:1011E00028BFED1827EA0807BBE7024600F028F8F9
:1011F0000446D4E73D46B4E70135F3E700274FF056
:101200000045AEE7AFF300809C7500883CE4377E74
:10121000FFFF0F000000F03F044A05491368002B50
:1012200008BF0B461844106018467047740300202E
:101230002828002081F0004102E000BF83F0004335
:1012400030B54FEA41044FEA430594EA050F08BF61
:1012500090EA020F1FBF54EA000C55EA020C7FEA25
:10126000645C7FEA655C00F0E2804FEA5454D4EBA2
:101270005555B8BF6D420CDD2C4480EA020281EA6C
:10128000030382EA000083EA010180EA020281EAA4
:101290000303362D88BF30BD11F0004F4FEA0131F6
:1012A0004FF4801C4CEA113102D0404261EB410105
:1012B00013F0004F4FEA03334CEA133302D052428B
:1012C00063EB430394EA050F00F0A780A4F1010447
:1012D000D5F1200E0DDB02FA0EFC22FA05F2801881
:1012E00041F1000103FA0EF2801843FA05F3594167
:1012F0000EE0A5F120050EF1200E012A03FA0EFCE6
:1013000028BF4CF0020C43FA05F3C01851EBE3710F
:1013100001F0004507D54FF0000EDCF1000C7EEB2C
:1013200000006EEB0101B1F5801F1BD3B1F5001F6A
:101330000CD349085FEA30004FEA3C0C04F1010489
:101340004FEA445212F5800F80F09A80BCF1004FB2
:1013500008BF5FEA500C50F1000041EB045141EA34
:10136000050130BD5FEA4C0C404141EB0101013CFD
:1013700028BFB1F5801FE9D291F0000F04BF0146EC
:101380000020B1FA81F308BF2033A3F10B03B3F1BE
:1013900020020CDA0C3208DD02F1140CC2F10C024E
:1013A00001FA0CF021FA02F10CE002F11402D8BFAC
:1013B000C2F1200C01FA02F120FA0CFCDCBF41EA78
:1013C0000C019040E41AA2BF01EB0451294330BD47
:1013D0006FEA04041F3C1CDA0C340EDC04F1140424
:1013E000C4F1200220FA04F001FA02F340EA0300FB
:1013F00021FA04F345EA030130BDC4F10C04C4F141
:10140000200220FA02F001FA04F340EA0300294620
:1014100030BD21FA04F0294630BD94F0000F83F46A
:10142000801306BF81F480110134013D4EE77FEA4D
:10143000645C18BF7FEA655C29D094EA050F08BF99
:1014400090EA020F05D054EA000C04BF194610467A
:1014500030BD91EA030F1EBF0021002030BD5FEABE
:10146000545C05D14000494128BF41F0004130BDE6
:1014700014F580043CBF01F5801130BD01F000453A
:1014800045F0FE4141F470014FF0000030BD7FEAAD
:10149000645C1ABF194610467FEA655C1CBF0B46A8
:1014A000024650EA013406BF52EA033591EA030FBF
:1014B00041F4002130BD00BF90F0000F04BF0021B7
:1014C000704730B54FF4806404F132044FF00005EA
:1014D0004FF0000150E700BF90F0000F04BF002163
:1014E000704730B54FF4806404F1320410F00045C9
:1014F00048BF40424FF000013EE700BF42004FEAC4
:10150000E2014FEA31014FEA02701FBF12F07F4340
:1015100093F07F4F81F06051704732F07F4208BFF7
:10152000704793F07F4F04BF41F40021704730B5FE
:101530004FF4607401F0004521F000411CE700BF4A
:1015400050EA010208BF704730B54FF000050AE0CD
:1015500050EA010208BF704730B511F0004502D5CE
:10156000404261EB41014FF4806404F132045FEAD0
:10157000915C3FF4D8AE4FF003025FEADC0C18BF79
:1015800003325FEADC0C18BF033202EBDC02C2F16B
:10159000200300FA03FC20FA02F001FA03FE40EAFD
:1015A0000E0021FA02F11444BDE600BF4FF0FF3CEB
:1015B00006E000BF4FF0010C02E000BF4FF0010C4D
:1015C0004DF804CD4FEA410C7FEA6C5C4FEA430CC6
:1015D00018BF7FEA6C5C1BD001B050EA410C0CBF15
:1015E00052EA430C91EA030F02BF90EA020F002077
:1015F000704710F1000F91EA030F58BF994208BFDE
:1016000090422CBFD8176FEAE37040F0010070479A
:101610004FEA410C7FEA6C5C02D150EA013C07D1F1
:101620004FEA430C7FEA6C5CD6D152EA033CD3D03C
:101630005DF8040B704700BF8446104662468C4636
:101640001946634600E000BF01B5FFF7B7FF002869
:1016500048BF10F1000F01BD4DF808EDFFF7F4FF92
:101660000CBF012000205DF808FB00BF4DF808ED1D
:10167000FFF7EAFF34BF012000205DF808FB00BF40
:101680004DF808EDFFF7E0FF94BF012000205DF862
:1016900008FB00BF4DF808EDFFF7CEFF94BF012017
:1016A00000205DF808FB00BF4DF808EDFFF7C4FF10
:1016B00034BF012000205DF808FB00BF80F000402F
:1016C00002E000BF81F0004142001FBF5FEA41031A
:1016D00092EA030F7FEA226C7FEA236C6AD04FEA1A
:1016E0001262D2EB1363C1BFD2184140484041405F
:1016F000B8BF5B42192B88BF704710F0004F40F411
:10170000000020F07F4018BF404211F0004F41F42C
:10171000000121F07F4118BF494292EA030F3FD0F8
:10172000A2F1010241FA03FC10EB0C00C3F120030B
:1017300001FA03F100F0004302D5494260EB40009A
:10174000B0F5000F13D3B0F1807F06D340084FEA05
:10175000310102F10102FE2A51D2B1F1004F40EBFA
:10176000C25008BF20F0010040EA03007047490062
:1017700040EB0000013A28BFB0F5000FEDD2B0FAFF
:1017800080FCACF1080CB2EB0C0200FA0CF0AABF22
:1017900000EBC25052421843BCBFD04018437047C0
:1017A00092F0000F81F4000106BF80F400000132C6
:1017B000013BB5E74FEA41037FEA226C18BF7FEA9D
:1017C000236C21D092EA030F04D092F0000F08BFDF
:1017D0000846704790EA010F1CBF0020704712F0C6
:1017E0007F4F04D1400028BF40F00040704712F105
:1017F00000723CBF00F50000704700F0004343F06A
:10180000FE4040F4000070477FEA226216BF08469F
:101810007FEA23630146420206BF5FEA412390EA62
:10182000010F40F4800070474FF0000304E000BF58
:1018300010F0004348BF40425FEA000C08BF704709
:1018400043F0964301464FF000001CE050EA0102CD
:1018500008BF70474FF000030AE000BF50EA0102E2
:1018600008BF704711F0004302D5404261EB4101CF
:101870005FEA010C02BF84460146002043F0B643F4
:1018800008BFA3F18053A3F50003BCFA8CF2083A19
:10189000A3EBC25310DB01FA02FC634400FA02FC22
:1018A000C2F12002BCF1004F20FA02F243EB020029
:1018B00008BF20F00100704702F1200201FA02FC8B
:1018C000C2F1200250EA4C0021FA02F243EB02007E
:1018D00008BF20EADC7070474FF0FF0C1CEAD052C2
:1018E0001EBF1CEAD15392EA0C0F93EA0C0F6FD083
:1018F0001A4480EA010C400218BF5FEA41211ED061
:101900004FF0006343EA501043EA5111A0FB01314C
:101910000CF00040B1F5000F3EBF490041EAD37121
:101920005B0040EA010062F17F02FD2A1DD8B3F19D
:10193000004F40EBC25008BF20F00100704790F00C
:10194000000F0CF0004C08BF49024CEA502040EA5E
:1019500051207F3AC2BFD2F1FF0340EAC250704724
:1019600040F400004FF00003013A5DDC12F1190F62
:10197000DCBF00F000407047C2F10002410021FAD4
:1019800002F1C2F1200200FA02FC5FEA310040F1EC
:10199000000053EA4C0308BF20EADC70704792F065
:1019A000000F00F0004C02BF400010F4000F013A9D
:1019B000F9D040EA0C0093F0000F01F0004C02BF98
:1019C000490011F4000F013BF9D041EA0C018FE707
:1019D0000CEAD15392EA0C0F18BF93EA0C0F0AD00D
:1019E00030F0004C18BF31F0004CD8D180EA010033
:1019F00000F00040704790F0000F17BF90F0004FCC
:101A0000084691F0000F91F0004F14D092EA0C0FAD
:101A100001D142020FD193EA0C0F03D14B0218BF40
:101A2000084608D180EA010000F0004040F0FE4086
:101A300040F40000704740F0FE4040F44000704722
:101A40004FF0FF0C1CEAD0521EBF1CEAD15392EAA1
:101A50000C0F93EA0C0F69D0A2EB030280EA010C91
:101A600049024FEA402037D04FF0805343EA11112A
:101A700043EA10130CF000408B4238BF5B0042F188
:101A80007D024FF4000C8B4224BF5B1A40EA0C002D
:101A9000B3EB510F24BFA3EB510340EA5C00B3EB5F
:101AA000910F24BFA3EB910340EA9C00B3EBD10F4D
:101AB00024BFA3EBD10340EADC001B0118BF5FEA9F
:101AC0001C1CE0D1FD2A3FF650AF8B4240EBC250C8
:101AD00008BF20F0010070470CF0004C4CEA502089
:101AE0007F32C2BFD2F1FF0340EAC250704740F4D8
:101AF00000004FF00003013A37E792F0000F00F0CA
:101B0000004C02BF400010F4000F013AF9D040EA47
:101B10000C0093F0000F01F0004C02BF490011F4DB
:101B2000000F013BF9D041EA0C0195E70CEAD153D3
:101B300092EA0C0F08D142027FF47DAF93EA0C0FBA
:101B40007FF470AF084676E793EA0C0F04D14B029E
:101B50003FF44CAF08466EE730F0004C18BF31F050
:101B6000004CCAD130F000427FF45CAF31F000434A
:101B70007FF43CAF5FE700BF2DE9F0478AB0002457
:101B80000694079408940994584B9A6942F01002FD
:101B90009A619A6902F010020192019A9A6942F0E0
:101BA00004029A619A6902F004020292029A9A6906
:101BB00042F008029A619A6902F008020392039ABD
:101BC0009A6942F040029A619A6902F040020492D6
:101BD000049A9A6942F020029A619B6903F02003FB
:101BE0000593059BDFF8148122460E21404604F040
:101BF0007CFD3F4E22464EF24001304604F075FD1A
:101C0000DFF8FCA022464021504604F06EFDA023E0
:101C1000069307940225089506A9364804F042FC6D
:101C20000E230693012707970894099506A94046B5
:101C300004F038FC4FF4404306930794089506A936
:101C40002D4804F02FFC4FF400430693DFF8B490C6
:101C5000CDF81C90089506A9404604F023FC4EF2EE
:101C60004003069307970894099506A9304604F0A7
:101C700019FC4023069307970894099506A9504636
:101C800004F010FC0F230693CDF81C90089506A9CC
:101C9000304604F007FC22460521062004F062FFCE
:101CA000062004F093FF22460521072004F05AFF86
:101CB000072004F08BFF22460521082004F052FF84
:101CC000082004F083FF22460521092004F04AFF82
:101CD000092004F07BFF22460521282004F042FF62
:101CE000282004F073FF0AB0BDE8F087001002401E
:101CF000001401400008014000180140000C0140A0
:101D0000001001400000111000B583B00A4B5A6961
:101D100042F001025A615B6903F001030193019BE8
:101D2000002205210C2004F01DFF0C2004F04EFFC2
:101D300003B05DF804FB00BF0010024070B584B032
:101D400000250195029503950C4C0D4B2360A56071
:101D50000126E66065614FF46023E36165602661FA
:101D6000204605F01FFA0A2301930296039501A964
:101D7000204605F0A3F804B070BD00BF7016002027
:101D80000024014030B595B00024109411941294B1
:101D900013940E940F940794089409940A940B9446
:101DA0000C940D940094019402940394049405946B
:101DB00006941E4D1E4B2B6001236B60AC603123DB
:101DC000EB602C616C61AC61284606F04BF84FF477
:101DD0008053109310A9284605F089FE284606F086
:101DE0005BF80E940F940EA9284606F0ABFA602318
:101DF0000793089409940A940B940C940D9422462A
:101E000007A9284606F0E6F800940194029403948A
:101E100004944FF40053059306946946284606F04F
:101E200065FA284601F0EEFB15B030BDE016002043
:101E3000002C014008B50948094B0360094B436079
:101E400000238360C3604FF4804202614361836179
:101E5000C361036205F0FEFB08BD00BF1C16002035
:101E600000540040A086010008B50848084B0360F4
:101E70004FF4E133436000238360C36003610C22AD
:101E800042618361C36106F093FB08BD2017002007
:101E9000004C004008B50848084B03604FF461430C
:101EA000436000238360C36003610C22426183614D
:101EB000C36106F07DFB08BDA0160020003801407C
:101EC00030B58DB0002401940294114D4FF0804341
:101ED0002B606C60AC604FF6FF73EB602C61AC6103
:101EE000032303930222049201230593069407948B
:101EF000089209930A940B9403A9284605F0E6FF7B
:101F00000194029401A9284606F01CFA0DB030BDD8
:101F10006017002008B502F033FB0022402103487F
:101F200004F0E3FB00F080FF08BD00BF0014014097
:101F300008B50FE000F054FF1F4B00221A700DE0AF
:101F4000002002F047FA08211C4804F0D4FB32209C
:101F500007F03BF8184B1B78002BEBD103F026FE63
:101F6000174B1B68C01A174B1B68984202D9164BB7
:101F700001221A70144B1B78002BE1D1134B1B78F4
:101F800093B903F013FE124B1B68C01AB0F57A7FA9
:101F9000D9D9104B1B78002BD5D102F055F803F09E
:101FA00005FE0B4B1860CEE7012002F013FA074B39
:101FB00000221A70E5E700BF80030020000C0140FA
:101FC00078030020640000208103002068000020C6
:101FD0007C030020A503002008B5002001F0F0F8E4
:101FE00008BD30B597B000240F9411941294079453
:101FF000089409940A940B94019402940394049411
:102000000594069401220C924FF480330D930E94A4
:1020100010920225139514934FF4E01315930CA816
:1020200003F0F4FD0F230793089509944FF48063A0
:102030000A930B94294607A804F00EF81223019383
:102040004FF400430393069401A804F017F917B066
:1020500030BD000000B591B003F08AFDFFF7C1FF6D
:10206000FFF78AFDFFF76AFEFFF74EFEFFF78AFED5
:10207000FFF7E0FEFFF7F8FEFFF722FFFFF70AFF8A
:102080001A4C204605F020F9204604F0F1FF1821F3
:10209000174806F0F5F802F039F8164C0BAD264655
:1020A0000FCE0FC533682B6000210BA806F073FF1D
:1020B000114B186006AD04F114060FCE0FC533683E
:1020C0002B60002106A806F066FF0C4B186001ADDE
:1020D00028340FCC0FC523682B60002101A806F01F
:1020E0005AFF074B186006F051FFFEE770160020FC
:1020F00060170020B09D0008A4170020A017002042
:10210000A817002010B50446431E9BB2012B03D92B
:10211000042801D0082809D103F048FD0D4B1860B0
:102120000D4B00221A700D4B01221A70B4F5004FAE
:1021300000D010BD0A4B1B78002BFAD100F072F9C9
:102140000028F6D100F0B6F90120064B187000F017
:10215000B1F9EEE778030020810300206800002039
:10216000A50300208003002008B50268034B9A42B3
:1021700000D008BD03F00EFDFBE700BF00100040DB
:102180007047000040291AD830B48B1C0C4C618277
:102190001A46DBB203EB1223227C13440022914245
:1021A00008DD10F8015B064C144425752B449BB2E6
:1021B0000132F4E7024AA2F8543030BC704770474D
:1021C0007000002010B40278437803EB0223124918
:1021D0000B808378C278120402EB0362037902EB6E
:1021E000032243791A4400238A60CB6082790A74FF
:1021F000C279047A04EB0224A4B24C82A21E9A4251
:1022000007DD03F10902815C034A1A4411750133A9
:10221000F4E710BC704700BFB017002030B583B0A2
:1022200000240FE0354B1B88C4F10102D20013419A
:102230008DF80730642301220DF10701304806F0C4
:10224000E6F90134012CEDDD00240AE0FF238DF8CE
:102250000730642301220DF10701294806F0D7F960
:102260000134032CF2DD254C237C8DF807306423E8
:1022700001220DF10701224806F0C9F9658A0235ED
:10228000ADB200240EE0C4F10103DB0045FA03F314
:102290008DF80730642301220DF10701184806F07C
:1022A000B6F90134012CEEDD00240CE0134B23447D
:1022B0001B7D8DF80730642301220DF107011048C2
:1022C00006F0A5F901340D4B5B8AA342EEDC002435
:1022D00010E00A4BB3F85430C4F10102D2001341AC
:1022E0008DF80730642301220DF10701044806F040
:1022F0008EF90134012CECDD03B030BD70000020FC
:10230000A016002010B5ACB000211391602214A8D3
:10231000FEF7C2F80B4C482204F110016846FDF7A5
:10232000DFFF94E80F00FFF779FF4FF47A73642220
:1023300013A9054806F0DBF913A8FFF743FF2CB0FB
:1023400010BD00BF70000020A016002030B5ABB05B
:1023500001218DF8A7100DF1A700FFF713FFFFF77C
:10236000D1FF2E4B187D08B12BB030BD4FF48173D7
:102370002893022128A8FFF705FFFFF7C3FF274B8B
:10238000187D0028F0D101210DF1A700FFF7FAFE1A
:10239000FFF7B8FF214B187D0028E5D102218DF809
:1023A000A11028A8FFF7EEFE1D4C1C4D582229460F
:1023B00012A8FDF795FF482204F110016846FDF7C9
:1023C0008FFF94E80F00FFF79DFF287D0028CBD1F9
:1023D00005238DF8A73001210DF1A700FFF7D2FEEC
:1023E000FFF790FF287D0028BED10424042C02DDD5
:1023F0000A4B187DB8E706238DF8A03001238DF82D
:10240000A13000238DF8A2308DF8A340042128A824
:10241000FFF7B8FEFFF776FF0134E7E7B0170020BB
:102420007000002000B583B001218DF807100DF178
:102430000700FFF7A7FEFFF765FF1C4B1B7D6BBB7B
:1024400040F20223009300238DF8043002216846F5
:10245000FFF798FEFFF756FF144B1B7D13BB0423B9
:102460008DF8003002238DF8013000238DF8033001
:102470008DF802308DF804300D4B1B788DF8053047
:1024800006216846FFF77EFEFFF73CFF074B187DED
:10249000092809D0012802D1FE2000E0FD2003B068
:1024A0005DF804FBFD20FAE7FF20F8E7B0170020F5
:1024B0006A000020012800D9704700B583B060B9D8
:1024C00051238DF8073001210DF10700FFF75AFE67
:1024D000FFF718FF03B05DF804FB5023F1E700009D
:1024E00000B583B01D238DF8073001210DF10700E1
:1024F000FFF748FEFFF706FF044B5A7D987D00EB7F
:10250000022080B203B05DF804FB00BFB0170020CA
:1025100000B583B00D238DF8073001210DF10700C0
:10252000FFF730FEFFF77AFE03B05DF804FB0146CB
:10253000002300E00133FF2B0BDC03F10112B1EBB0
:10254000C22FF7D203F58032D002B1EBC22FF1D304
:1025500070470020FCE700002DE9F04182B00546FD
:102560000E46904604F084FB2846FFF7E0FF044641
:1025700005EB8800FFF7DBFF0346134800220260EB
:1025800084601B1BDB0A0133C36001A904F040FC1B
:1025900070B947460024A74210DD56F824200023D6
:1025A0002946022004F0C2FB28B904350134F2E7C1
:1025B00004F082FB05E004F07FFB02E004F072FB14
:1025C000002002B0BDE8F0818403002050F8043BF5
:1025D00041F8043B1346013A92B2002BF6D1704702
:1025E0002DE9F84380468946FEF7F4F805460024B5
:1025F0000FE000210B43013A002A07DB1B0202EB2C
:102600008401A942F5DA18F80110F3E749F82430FB
:1026100001342046FEF760FF06460F462846FFF7C6
:1026200007F94FF07A51FFF757F9FEF767FFFEF70A
:102630006FFD02460B4630463946FFF717F810B1DA
:1026400003220023D8E7BDE8F8830000064B0022F0
:102650001A725A729A72DA721A735A73034B1B689F
:1026600047F6FF725A627047081800206017002072
:10267000034608B9002950D00BB901294FD00BB936
:1026800002294ED00BB903294DD0012B19D0012BB3
:102690001BD0012B1DD0012B1FD0022B21D0022BD0
:1026A00023D0022B25D0022B27D0032B29D0032B9C
:1026B0002BD0032B2DD0032B37D1032937D000206B
:1026C00070470029E3D1652070470129E1D16620D8
:1026D00070470229DFD1672070470329DDD16820C8
:1026E00070470029DBD1692070470129D9D16A20C0
:1026F00070470229D7D16B2070470329D5D16C20B0
:1027000070470029D3D16D2070470129D1D16E20A7
:1027100070470229CFD16F20704761207047622037
:102720007047632070476420704700207047702016
:102730007047612800F01981412800F01881622853
:1027400000F01781422800F01681632800F01581FF
:10275000432800F01481642800F01381442800F01D
:102760001281652800F01181452800F0108166284B
:1027700000F00F81462800F00E81672800F00D81DF
:10278000472800F00C81682800F00B81482800F0F1
:102790000A81692800F00981492800F008816A2827
:1027A00000F007814A2800F006816B2800F00581BF
:1027B0004B2800F004816C2800F003814C2800F0C5
:1027C00002816D2800F001814D2800F000816E2803
:1027D00000F0FF804E2800F0FE806F2800F0FD80A2
:1027E0004F2800F0FC80702800F0FB80502800F09B
:1027F000FA80712800F0F980512800F0F8807228E2
:1028000000F0F780522800F0F680732800F0F58081
:10281000532800F0F480742800F0F380542800F06E
:10282000F280752800F0F180552800F0F0807628BD
:1028300000F0EF80562800F0EE80772800F0ED8061
:10284000572800F0EC80782800F0EB80582800F042
:10285000EA80792800F0E980592800F0E8807A2899
:1028600000F0E7805A2800F0E680312800F0E5808B
:10287000212800F0E480322800F0E380402800F0B6
:10288000E280332800F0E180232800F0E080342843
:1028900000F0DF80242800F0DE80352800F0DD80A5
:1028A000252800F0DC80362800F0DB805E2800F070
:1028B000DA80372800F0D980262800F0D880382820
:1028C00000F0D7802A2800F0D680392800F0D58083
:1028D000282800F0D480302800F0D380292800F088
:1028E000D2802D283ED05F2800F0CF803D2800F018
:1028F000CE802B2800F0CD805B2800F0CC807B2898
:1029000000F0CB805D2800F0CA807D2800F0C980EF
:102910005C2800F0C8807C2800F0C780602800F0A8
:10292000C6807E2800F0C580A0F13A03DBB2012BFF
:1029300040F2C180272800F0C080222800F0BF802C
:102940002C2800F0BE803C2800F0BD802E2800F02E
:10295000BC803E2800F0BB802F2800F0BA803F28C2
:1029600001D00020704738207047042070470420B1
:1029700070470520704705207047062070470620E5
:1029800070470720704707207047082070470820CD
:10299000704709207047092070470A2070470A20B5
:1029A00070470B2070470B2070470C2070470C209D
:1029B00070470D2070470D2070470E2070470E2085
:1029C00070470F2070470F2070471020704710206D
:1029D0007047112070471120704712207047122055
:1029E000704713207047132070471420704714203D
:1029F0007047152070471520704716207047162025
:102A0000704717207047172070471820704718200C
:102A1000704719207047192070471A2070471A20F4
:102A200070471B2070471B2070471C2070471C20DC
:102A300070471D2070471D2070471E2070471E20C4
:102A400070471F2070471F207047202070472020AC
:102A50007047212070472120704722207047222094
:102A6000704723207047232070472420704724207C
:102A70007047252070472520704726207047262064
:102A8000704727207047272070472D2070472E2041
:102A900070472E2070472F2070472F20704730201E
:102AA0007047302070473120704731207047322006
:102AB00070473220704733207047342070473420ED
:102AC00070473620704736207047372070473720D0
:102AD00070473820704708B5034600B921B30BB9D9
:102AE000012925D00BB9022926D00BB9032927D0FB
:102AF000012B29D0012B2DD0012B31D0012B35D02A
:102B0000022B39D0022B3DD0022B41D0022B45D0D5
:102B1000032B49D0032B4DD0032B51D0032B59D17C
:102B2000032953D0002002E06120FFF702FE08BD18
:102B30006220FFF7FEFDFAE76320FFF7FAFDF6E7F4
:102B40006420FFF7F6FDF2E70029D3D16520FFF7F7
:102B5000F0FDECE70129CFD16620FFF7EAFDE6E7BB
:102B60000229CBD16720FFF7E4FDE0E70329C7D1B5
:102B70006820FFF7DEFDDAE70029C3D16920FFF7FF
:102B8000D8FDD4E70129BFD16A20FFF7D2FDCEE7F7
:102B90000229BBD16B20FFF7CCFDC8E70329B7D1D1
:102BA0006C20FFF7C6FDC2E70029B3D16D20FFF707
:102BB000C0FDBCE70129AFD16E20FFF7BAFDB6E733
:102BC0000229ABD16F20FFF7B4FDB0E77020FFF70B
:102BD000B0FDACE70020AAE7F8B504460D46594B16
:102BE00003EB80035A5C584B03EB80035A540022DA
:102BF0004021564803F079FD554E00224FF4004124
:102C0000304603F072FD00224FF48041304603F05D
:102C10006CFD00224FF40051304603F066FD032D99
:102C200008D8DFE805F0020D141B012240214748B7
:102C300003F05BFD032C1ED8DFE804F0174F575F4D
:102C400001224FF40041424803F04FFDF2E7012218
:102C50004FF480413E4803F048FDEBE701224FF47A
:102C600000513B4803F041FDE4E70121384803F0FF
:102C700035FD344B585500224021344803F035FDD2
:102C8000334E00224FF40041304603F02EFD002267
:102C90004FF48041304603F028FD00224FF40051EC
:102CA000304603F022FD274B03EB84035B5D012BD1
:102CB0002BD0244B03EB84035E5D012E33D0214BDC
:102CC00003EB84035E5D012E39D11F4800EB8404C1
:102CD000635D002B34D0002632E002211C4803F053
:102CE000FDFC184B2B441871C5E70421184803F06C
:102CF000F5FC144B2B441872BDE70821144803F06F
:102D0000EDFC104B2B441873B5E70F4B03EB84031A
:102D10005B5D002BCDD102F049FF05EB84030D4A2A
:102D200042F82300C5E702F041FF05EB8403094A9E
:102D300052F82330C01AB0F57A7FC0D900E00026DF
:102D40003046F8BD94030020E80300200010014045
:102D500000140140A803002070B582B002AB03E963
:102D600006009DF900309DF8012043EA42035BB262
:102D70009DF8022043EA82035BB29DF8032043EAF8
:102D8000C2035BB29DF8042043EA02135BB29DF8D4
:102D9000052043EA42135BB29DF8062043EA821302
:102DA0005BB29DF8072043EAC2130B4CA37120725B
:102DB000A61D0A4D08223146284606F0B3FF14200E
:102DC00006F003F90023A371237208223146284636
:102DD00006F0A8FF02B070BD08180020781F002080
:102DE00030B587B00024049405940E4B6D460FCB8C
:102DF00007C52B806846FDF7EDFC844210D206AB78
:102E0000234413F8180CFFF794FC06AB13E90600F3
:102E1000FFF7A2FF142006F0D8F80134E4B2E9E786
:102E200007B030BD149E000870B584B00023029333
:102E30000393FFF70BFC1CE004AB13E906008020B2
:102E4000FFF78AFF15E004AB13E906008120FFF7C6
:102E500083FF0EE001210020FFF7BEFEE0B96F4BBB
:102E60001E78012E2BD0002E00F0A280012006F04B
:102E7000ACF800F07DFA0228DED00128E3D0002172
:102E80000846FFF7A9FE0028E4D0644A137801330E
:102E900003F001031370DDE7782001F0A1F8044688
:102EA000002CDCD02078FFF744FC04AB13E90600CB
:102EB000FFF752FF142006F088F8A468F0E701221B
:102EC0000221574803F011FC00238DF80430012142
:102ED0000846FFF781FE30B101F0DCF8012101A8BE
:102EE00001F0ECF8C2E701210020FFF775FE18B1F0
:102EF00061238DF80430F1E702210020FFF76CFE1A
:102F000018B162238DF80430E8E703210020FFF7B1
:102F100063FE18B163238DF80430DFE7022101203E
:102F2000FFF75AFE18B17F238DF80430D6E703214E
:102F30000120FFF751FE18B10D238DF80430CDE7C5
:102F400000210220FFF748FE18B178238DF80430E5
:102F5000C4E701210220FFF73FFE18B179238DF865
:102F60000430BBE702210846FFF736FE18B1832381
:102F70008DF80430B2E701210320FFF72DFE18B1D0
:102F800081238DF80430A9E702210320FFF724FEF6
:102F900018B184238DF80430A0E703210846FFF719
:102FA0001BFE00283FF462AF82238DF8043095E7C2
:102FB000002202211A4803F098FB354628E02146FA
:102FC0002846FFF788FD04AB13E90600FFF7C4FEAF
:102FD0000134E4B2032C19D821462846FFF7FCFD42
:102FE0000028F5D00F4B1B78002BE8D0012BEFD138
:102FF00021462846FFF73CFB8DF804004FF4FA63A6
:10300000012201A9084805F002FBE1E70135EDB214
:10301000032D3FF62BAF3446DCE700BFA5030020AD
:10302000000C0140A40300202017002010B5044626
:103030000C20FDF745F9047000228260426010BD4B
:1030400018B108B5FDF744F908BD704768B138B547
:103050000546806803E08468FDF73AF920460028B9
:10306000F9D12846FDF734F938BD70474B68436005
:103070008B6883600B680360012380F81437704706
:1030800080F81417704710B404688C4216D901F503
:10309000DA7400EB8404217190F8144700EB81008E
:1030A000B3FBF4F380F8D536B2FBF4F280F8D62601
:1030B0009DF80430B3FBF4F380F8D73610BC7047AA
:1030C00010B584B0C2F307440094C2F30723D2B210
:1030D000FFF7D9FF04B010BD00B583B000238DF811
:1030E00004308DF805308DF80630019AFFF7E8FFBF
:1030F00003B05DF804FB000008B50021034805F0AB
:1031000069F8034B01221A7008BD00BFE0160020C9
:10311000FC03002070B502460020034615E09C1C0D
:1031200002EB840410266660013949B2013300299C
:1031300009DB01248C402C42F1D09C1C02EB84045E
:1031400020266660F0E70130C0B20F280DD802EBF0
:10315000800191F8D54691F8D6562D0245EA0445EE
:1031600091F8D7160D431721E1E7002107E0981CDD
:1031700002EB80000024446001330131C9B23129DF
:10318000F5D99BB20C320021054804F0A1FF054B94
:103190001B78002BFBD0034B00221A7070BD00BFC0
:1031A000E0160020FC03002038B5054600240F2C53
:1031B00005DC21462846FFF78FFF0134F7E738BDCD
:1031C00070B594B0584A11AB07CA83E80700194696
:1031D0005648FFF74BFF002425461FE0544A13686A
:1031E000591C11601C46514A1268934230D00A2D76
:1031F00033D0504A05EB4503D118D35C4A7843EAF3
:1032000002238A7843EA024221464848FFF758FFE2
:103210004648FFF77FFF322005F0D7FE464B1B786C
:1032200013B1464B00221A70454B19783F48FFF7FF
:1032300027FF424B1B78032BEAD801A252F823F058
:1032400021330008D53200085F320008DD31000864
:1032500001350024364B1C60C9E70025C9E7394B0E
:1032600093F90030012B0AD0364B93F90030B3F1BB
:10327000FF3F1CD0334B93F900301C44C8E72D4965
:1032800005EB4503CA18294ECB5C517843EA01236C
:10329000927843EA024221463046FFF711FF336835
:1032A000013B9C42E0D9274BFF221A70DCE7214604
:1032B0001E48FFF711FF002CDCDA224B01221A70A6
:1032C000AA18214DA5FB0235ED0805EB85056B001D
:1032D000D51ACFE71D4B1B78002B99D0102201A9DE
:1032E0001B48FFF773F90020184B18700CE0D10051
:1032F00026FA01F10D4B03EB8003134483F8D41637
:103300000132032AF3DD01300F2881DC14AB03EB1B
:10331000800353F84C6CB6F1FF3FF4D00022F0E785
:103320000248FFF741FF73E7EC9D000818180020E2
:10333000F8030020CC00002081030020EB000020D7
:10334000C8000020EC000020CDCCCCCCEA0000204E
:1033500000D80708044A1168044B196003685B6AC7
:103360009B081360704700BF040400200004002085
:10337000064B1A68064B1B689A4204DC01DB0020EE
:103380007047022070470120704700BF04040020EE
:10339000000400207047FEE7FEE7FEE7FEE7704707
:1033A00008B5012003F0ACF908BD08B5022003F010
:1033B000A7F908BD08B5042003F0A2F908BD08B5B7
:1033C000082003F09DF908BD08B5024803F042FA51
:1033D00008BD00BFD815002008B5024801F0E4FD83
:1033E00008BD00BF9C23002008B5024804F028FC5B
:1033F00008BD00BF6017002008B54FF4004003F07F
:103400007FF908BD08B5024804F01AFC08BD00BFEA
:10341000301F002000B583B0114B9A6942F00102C1
:103420009A619A6902F001020092009ADA6942F008
:103430008052DA61DB6903F080530193019B002223
:103440000F216FF0010003F08DFB064A536823F053
:10345000E06343F00073536003B05DF804FB00BF0A
:10346000001002400000014000B587B00023029325
:103470000393049305930268114B9A4202D007B05C
:103480005DF804FB03F56C439A6942F400729A619B
:103490009A6902F400720092009A9A6942F010024E
:1034A0009A619B6903F010030193019B012302932E
:1034B0000323039302A9034802F0F4FFDFE700BFF0
:1034C000002401400010014010B586B00023029393
:1034D0000393049305930268114B9A4201D006B0FE
:1034E00010BD104CA36943F00803A361A36903F066
:1034F00008030093009BC02302931223039303232A
:10350000059302A9084802F0CDFFE36943F40013D4
:10351000E361E36903F400130193019BDFE700BF5C
:103520000054004000100240000C01400268174B9C
:103530009A4200D0704710B582B0044603F5644348
:103540009A6942F400629A619B6903F400630193F3
:10355000019B0F480F4B03601023436000238360DF
:103560008022C2604FF4807202614FF400624261B7
:103570008361C36103F0E8F820B9054B63625C62C4
:1035800002B010BDFEF7FCFDF7E700BF002C0140C4
:10359000D81500201C00024010B586B0002302930D
:1035A0000393049305930368B3F1804F01D006B0F1
:1035B00010BD03F50433DA6942F00102DA61DA6919
:1035C00002F001020092009A9A6942F004029A61A4
:1035D0009B6903F004030193019B032302930024DE
:1035E00003940123049302A9054802F05BFF2246DD
:1035F00005211C2003F0B6FA1C2003F0E7FAD6E7F9
:103600000008014000B587B00023029303930493A0
:1036100005930268114B9A4202D007B05DF804FB93
:1036200003F564439A6942F040029A619B6903F092
:1036300040030193019B4FF4007302930223039311
:10364000059302A9064802F02DFF064A536843F08D
:10365000E06343F0C0035360DFE700BF002C01408C
:10366000001801400000014010B588B00023049309
:1036700005930693079303682D4A934204D02D4A7D
:1036800093422BD008B010BD2B4BDA6942F40022D4
:10369000DA61DA6902F400220092009A9A6942F033
:1036A00010029A619B6903F010030193019B4FF490
:1036B0008063049302230593032307931F4C04A9FB
:1036C000204602F0EFFE4FF40063049300230593BD
:1036D000069304A9204602F0E5FED3E7164B9A694B
:1036E00042F480429A619A6902F480420292029AFC
:1036F0009A6942F004029A619B6903F00403039300
:10370000039B4FF400730493022305930323079351
:103710000B4C04A9204602F0C5FE4FF480630493CD
:1037200000230593069304A9204602F0BBFEA9E7F7
:10373000004C0040003801400010024000100140E1
:103740000008014000B589B001460022362003F090
:1037500009FA362003F03AFA154BDA6942F0100202
:10376000DA61DB6903F010030193019B02A903A84E
:1037700002F066FD02F044FD43000E48A0FB032367
:103780009B0C013B0C480D4A026040F2E732C260DC
:10379000436000230361836004F064FB18B10120DF
:1037A00009B05DF804FB044804F094F9F8E700BFA1
:1037B0000010024083DE1B43301F00200010004039
:1037C00070B588B06C46254B0FCB84E80F001421F0
:1037D000002000F0A9FD224E012396E806002046B5
:1037E00000F08AFD1F4B25460FCB07C52B801B0C15
:1037F000A3731E21002000F097FD012396E8060028
:10380000204600F079FD184B1B781BBB174B184A5C
:103810001E216846FCF79AFF2821002000F084FD55
:103820000F4A012306CA684600F066FDFEF758FEFF
:1038300090B9104A1E216846FCF788FF322100200B
:1038400000F072FD064A012306CA684600F054FDE6
:1038500008B070BD084BDAE7084AEBE7589E00084D
:1038600008020020689E0008090400202C9E000821
:10387000789E0008489E0008249E0008389E000894
:1038800008B50F4B1B784BB90E4B1B7833B9037837
:103890000D2B06D0812B0AD0822B0ED0FFF790FF84
:1038A00008BD0020FEF752FD074B1870F6E7FEF743
:1038B0002FFE054BFF221A70F0E7FEF7B3FDEDE790
:1038C0000A040020080400200904002010B51B4B46
:1038D0001B78032B2BD8DFE803F02402151E184AAF
:1038E000184B07CA03C323F8022B120C1A701421B9
:1038F000002000F019FD144A012306CA114800F007
:10390000FBFC10BD114A0F4B07CA03C323F8022B5F
:10391000120C1A70EBE70E4A0A4B07CA03C31A705F
:10392000E5E70C4B074C0FCB07C42380DFE7054BC3
:10393000094A92E8030018609980D8E7EB0000205C
:10394000849E00080C04002010020020909E0008B5
:103950009C9E0008A89E0008B89E000808B5037841
:103960000D2B02D0FFF7B2FF08BD034A13780133D5
:1039700003F003031370F5E7EB00002010B592B0DD
:10398000102202A91748FEF721FE00200CE0D1000A
:1039900024FA01F1144B03EB8003134483F8D4168B
:1039A0000132032AF3DD01300F2809DC12AB03EBEF
:1039B000800353F8404CB4F1FF3FF4D00022F0E70D
:1039C00000230193012201A90848FEF7FFFD029B95
:1039D000B3F1FF3F03D09DF80720054B1A7012B0DA
:1039E00010BD00BF00D807081818002000E807081D
:1039F000EB00002030B58BB0294B1B78EBB12023B6
:103A00000293002403940494059406940794089464
:103A1000ADF82440234B1B680133234A1E2102A822
:103A2000FCF794FE1421502000F07EFC1F4A012375
:103A300006CA02A800F060FC26E0194B01221A70A9
:103A4000FFF79CFFDBE71A4A164B1968194B03EB8B
:103A50008103234493F8D4360093174B53F8243052
:103A60001E2102A8FCF772FE04EB840461001431ED
:103A700001F0FE01002000F057FC0C4A012306CAA9
:103A800002A800F039FC2C46032C06DC651C0B4B0D
:103A90001B689D42D7D00A4AD6E70BB030BD00BFA5
:103AA000340400202C040020D49E000808020020CA
:103AB000C89E00081818002074010020300400205F
:103AC000C09E000810B592B0002417E012AB03EBC3
:103AD000840151F8400C104B03EB8403134493F81A
:103AE000D43643EA002341F8403C013A002AEDDA9B
:103AF000102202A90948FEF72FFD01340F2C01DC2A
:103B00000322F3E7064B1B780193012201A9054824
:103B1000FEF722FD12B010BD1818002000D80708CB
:103B2000EB00002000E8070801297BDC10B5044603
:103B300003780D2B07D02378813B032B61D8DFE876
:103B400003F02A055163FFF7BDFFF4E7364B1B680E
:103B500073B936490B6801335A4203F00F0302F080
:103B60000F0258BF53420B602F4B00221A6048E0EF
:103B70002E4A1068013B2E4901EB8001194491F84F
:103B8000D41609B10139C9B2294A02EB80021344A3
:103B900083F8D41635E0244B1A689AB9234B1B6876
:103BA000002B0DDD013B5A4203F00F0302F00F0220
:103BB00058BF53421D4A13601B4B00221A6020E07D
:103BC0000F23F7E7194B1968013A194B03EB8103EF
:103BD000134493F8D426FE2A28BFFE22013283F82C
:103BE000D4260EE010480268013A124981FB0231E6
:103BF000D317C3EB610303EB8303D31A23EAE37305
:103C00000360FFF7F7FE10BD07480268013209495B
:103C100081FB0231D317C3EB610303EB8303D31A98
:103C20000360EEE7704700BF300400202C04002042
:103C30001818002067666666F0B591B04022002132
:103C40006846FCF729FC00270DE007F5001000F599
:103C5000FF50102269468001FEF7B8FC009BB3F1CB
:103C6000FF3F04D10137002FEFDD11B0F0BD194A3D
:103C700002F8373000252E462C461AE022F00302C7
:103C800010A90A4452F8400C5A4203F0030302F010
:103C9000030258BF5342DB0020FA03F3D8B22F28A7
:103CA00012D066B1FFF7C2F9A8604560054601343D
:103CB000E4B2631C1A46002BE0DADA1CDEE7FFF7F9
:103CC000B5F906460546F2E7024B03EBC7035E6013
:103CD000C8E700BF701F002030B589B0564B1B7875
:103CE00023B3002400940194029403940494059453
:103CF0000694ADF81C40514B1B680133504A1E21FD
:103D00006846FCF723FD1421204600F00DFB4D4AC8
:103D1000012306CA684600F0EFFA4B4B1B78012BD3
:103D200041D0022B5CD03BB109B030BD424B0122E7
:103D30001A70FFF781FFD4E7444C404D2B6814F80C
:103D40003330434A1E216846FCF700FD1E21002047
:103D500000F0EAFA3B4A012306CA684600F0CCFAB2
:103D60002B6804EBC30464680CB1002518E028211B
:103D7000002000F0D9FA334A012306CA354800F082
:103D8000BBFAD1E7C5EBC5002821C0B200F0CCFAE0
:103D90002C4A012306CA207800F054FAA4680135A1
:103DA000002CEFD1C0E71E21002000F0BDFA254C09
:103DB000012394E80600284800F09EFA274B1B7860
:103DC000234A1E216846FCF7C1FC2821002000F090
:103DD000ABFA012394E80600684600F08DFAA3E7E9
:103DE0001E21002000F0A0FA164A012306CA1A4834
:103DF00000F082FA1A4B1C680CB1002518E028214B
:103E0000002000F091FA0F4A012306CA154800F07D
:103E100073FA89E7C5EBC5002821C0B200F084FA27
:103E2000084A012306CA207800F00CFAA46801357C
:103E3000002CEFD178E700BF3D04002038040020BB
:103E4000FC9E0008100200203C040020701F00208F
:103E50000C9F00081C9F0008249F0008C40100203C
:103E600040040020309F0008012900F3AB8070B5AA
:103E7000A0B0554B1B78012B1CD0022B2DD01BB1B1
:103E8000FFF72AFF20B070BD03780D2B07D0812BE0
:103E90000CD0822BF4D14D4B00221A60F0E74A4B34
:103EA00001221A704A4B20221A70E9E7474B002280
:103EB0001A60E5E703780D2B02D0454A1370DFE75F
:103EC000434A1278202AF8D03F4B02221A7000236E
:103ED000404A1360404A1360D2E700780D280DD0A5
:103EE0007F2858D03B4B1B68002B64D0FFF79EF80F
:103EF000394B1A68906042601860C1E7364B1B6806
:103F0000002BEDD0304B00221A70304B1A68334B27
:103F100003EBC203586808B1FFF798F82B4B1A68F7
:103F20002C4B1D682D4B03EBC2014D6028490E78C8
:103F300003F83260002400943C22214601A8FCF7DB
:103F4000ABFA402221460DEB0200FCF7A5FA8DF8F2
:103F50000060214606E001312A7820AB0B4403F8CB
:103F6000802CAD680DB13E29F5DD013120AB19443F
:103F70002F2301F8803C10A96846FEF731FB134B54
:103F8000186800F5001000F5FF50102210A98001FC
:103F9000FEF7E2FA74E7104B186800283FF470AFA0
:103FA0004468FFF74DF814B10B4B1C6068E7094BF0
:103FB00000221A60F8E7FFF739F8074B1860054B45
:103FC00018605DE7704700BF3C0400203804002003
:103FD000C40100204004002044040020701F002081
:103FE0000023002B01DD00207047064A12F8332021
:103FF000824201D00133F4E7024A02EBC30358685E
:10400000704700BF701F002010B582B000240B2C39
:1040100008DCE1B2002000900B46802200F08AF913
:104020000134F4E702B010BD10B582B0112407E0EE
:10403000E1B2002000900B46802200F07BF90134B1
:104040003F2CF5DD02B010BD38B5FFF7DDFFFFF7FF
:10405000EBFF0A21002000F067F90121002000F0A9
:1040600063F9094C094D2868094A012306CA54F826
:10407000200000F041F92B6854F823301B6A984760
:1040800000F0A2F838BD00BFF40100204804002071
:104090001002002008B5074803680133064AA2FB56
:1040A000031222F0030101EB92029B1A0360FFF757
:1040B000CBFF08BD48040020CDCCCCCC38B504469D
:1040C0000D46FFF7B1FF064B1A68064B53F8223036
:1040D0005B6A29462046984700F076F838BD00BF55
:1040E00048040020F401002010B5002400E0013451
:1040F000042C07DC044B53F824309B6A002BF6D0C9
:104100009847F4E710BD00BFF401002010B582B05D
:1041100000F070F9FFF7E8FF0C24102C09DCE1B285
:10412000012300930B468022002000F003F90134A4
:10413000F3E7FFF789FF02B010BD000000B587B0BC
:104140008DF817004FF40051084802F0D4FA6423A8
:104150000293012301930DF11702009200227821AE
:10416000034803F02DFB07B05DF804FB0014014089
:104170001C16002030B585B005460C464FF40051A2
:10418000074802F0B8FA64230293A4B201940095A0
:10419000012340227821034803F012FB05B030BD13
:1041A000001401401C160020002303E0FF21054AF3
:1041B000D1540133B3F5806F03D20028F6D1014604
:1041C000F5E770475404002010B5002412E0A4F174
:1041D0005000C0B2FFF7B2FF0020FFF7AFFF102082
:1041E000FFF7ACFF8021054800EBC410FFF7C2FFCA
:1041F0000134E4B2072CEAD910BD00BF54040020FA
:1042000010F0800F0FD13F290DD8012A0CD0CB0818
:1042100000EBC31001F0070101238B40084A115C39
:1042200021EA030111547047CB0800EBC31001F0E1
:10423000070101238B40024A115C19431154704756
:10424000540400202DE9F04F83B0814602A800E914
:1042500006001F46A9F12003DBB25E2B41D8254B97
:104260001B889DF800603344802B3EDC214B5B882B
:104270009DF801A0D3465344402B38DC00251FE0B5
:104280001C4B1888598829442044B7FA87F25209F0
:10429000C9B2C0B2FFF7B4FF0134A6420FD908FA81
:1042A00004F313F4004FEBD0124B188859882944BB
:1042B00020443A46C9B2C0B2FFF7A2FFECE701358D
:1042C000AA4508D9A9F1200303FB0B53019A32F840
:1042D00013800024E1E7074B1A8816441E804846E5
:1042E00000E0002003B0BDE8F08F0020FAE70020D6
:1042F000F8E700BF4C04002030B583B0044602A8A4
:1043000000E906001D46207858B12B4602AA12E9A2
:104310000600FFF797FF02462078824201D1013460
:10432000F1E703B030BD0000014B188059807047A1
:104330004C0400202DE9F04F83B004460E46914610
:104340009B469DF830A0A2EB0008B8F1000FB8BF63
:10435000C8F100085F1A002FB8BF7F4282420DD912
:1043600001230093B3450DD901230193A8EB070561
:10437000524659464846FFF743FF1BE04FF0FF33D4
:104380000093EFE74FF0FF330193EFE752463146DA
:104390002046FFF735FF6B007A42B2EB450F03DA98
:1043A000ED1B009A1444E4B2984503DD4544019B9B
:1043B0001E44F6B24C45E9D15E45E7D103B0BDE8F5
:1043C000F08F10B504468120FFF7B8FE2046FFF7B6
:1043D000B5FE10BD08B530B1054B01225A71AF20B2
:1043E000FFF7ACFE08BD024B00225A71AE20F7E782
:1043F0004C04002008B5642001F0DEFB0020FFF72C
:10440000E9FF2020FFF79AFE0020FFF797FEB0207B
:10441000FFF794FEC820FFF791FE0020FFF78EFE05
:104420001020FFF78BFE4020FFF788FEFF20FFF7EC
:10443000C8FFA120FFF782FEA620FFF77FFEA8207D
:10444000FFF77CFE3F20FFF779FEA420FFF776FE02
:10445000D320FFF773FE0020FFF770FED520FFF793
:104460006DFEF020FFF76AFED920FFF767FE2220DD
:10447000FFF764FEDA20FFF761FE1220FFF75EFE11
:10448000DB20FFF75BFE2020FFF758FE8D20FFF7B3
:1044900055FE1420FFF752FE0120FFF79BFF00207E
:1044A000FFF782FEFFF790FE034B00221A805A802E
:1044B00001221A7108BD00BF4C04002038B51D4B05
:1044C0001B7853B3012B2ED014210020FFF72CFFB3
:1044D000194C1A4D012394E806002846FFF70CFFFB
:1044E000174802F0E7FC642303FB00F3A3F5203335
:1044F0003C3B1448A0FB03231B0A134A1E212846F9
:10450000FCF724F928210020FFF70EFF012394E88F
:1045100006002846FFF7F0FE38BD084B0B4A07CAD5
:1045200083E80700D0E7054C094B0FCB84E80F0068
:10453000CAE700BFA4030020100200205408002096
:104540007016002089163CA0B4AC000898AC000896
:10455000A4AC000808B503780D2B02D0FFF7AEFF1E
:1045600008BD064B1B781BB9044B01221A70F5E7F6
:10457000012BF3D1014B00221A70EFE7A4030020B6
:1045800008B500220B490C4804F05CFF48B90B4900
:10459000094804F06EFF38B9074804F071FF30B9DC
:1045A00008BDFDF7EDFDF2E7FDF7EAFDF4E7FDF7E5
:1045B000E7FDF5E744020020781F0020DC02002020
:1045C00012230B80004870476002002004230B80F8
:1045D00000487047740200200023934217D230B481
:1045E0000BE0373401F8134000015C000134002572
:1045F0000D550133DBB2934207D2040FB0F1204FC7
:10460000EFD2303401F81340EEE730BC704770470A
:1046100038B50A4B186804331C6804331B68C0188B
:1046200000D138BD064D0822A91CFFF7D5FF042292
:1046300005F112012046FFF7CFFFF2E7E8F7FF1F71
:104640007802002008B51A230B80FFF7E1FF01482C
:1046500008BD00BF7802002008B50A4628B9054900
:10466000054805F07FFA034808BD0249024805F0F5
:1046700079FAF8E79C210020C4AC000810B50A467E
:10468000034C2146034805F06DFA204610BD00BFDB
:104690009C210020D4AC000808B50A4628B9054979
:1046A000054805F05FFA034808BD0249024805F0D5
:1046B00059FAF8E79C210020E8AC000808B50A4642
:1046C00028B90549054805F04DFA034808BD0249D7
:1046D000024805F047FAF8E79C210020F4AC0008F6
:1046E000022805D8DFE800F0050402000120704729
:1046F0000220704702680E4B9A4200D0704700B506
:1047000083B003F5DA33DA6942F40002DA61DB6977
:1047100003F400030193019B00220521142002F001
:1047200021FA142002F052FA03B05DF804FB00BF36
:10473000005C004008B500F22C41D0F85C0404F0A5
:10474000B7FE08BD08B500EB4113D3F83C22D0F802
:104750005C0404F0DAFE08BD08B500EB4113DA6B27
:10476000D0F85C0404F007FF08BD08B5D0F85C047D
:1047700004F08BFF08BD10B504468368022B09D1F5
:104780000121D4F85C0404F06EFFD4F85C0404F05A
:104790004BFF10BDFDF7F4FCF2E7000010B5044636
:1047A000D0F85C0404F062FFA36923B1024A1369E4
:1047B00043F00603136110BD00ED00E008B5D0F82A
:1047C0005C0404F05CFF08BD10B504461648C0F850
:1047D0005C44C4F82002154B0360082343600223A5
:1047E000836000238361C361036200F07DF8B8B980
:1047F000182300221146D4F8200200F0DCFC5823D4
:1048000000228021D4F8200200F0D5FC4FF4807300
:1048100000228121D4F8200200F0CDFC002010BD40
:10482000FDF7AEFCE4E700BF9C230020005C0040E5
:1048300008B5D0F8200200F0C2F8FFF751FF08BD1C
:1048400010B514461A462346D0F8200200F0E2F8CC
:10485000FFF746FF10BD08B5D0F8200200F003F9BD
:10486000FFF73EFF08BD08B5D0F8200200F04EFC6F
:10487000FFF736FF08BD08B5D0F8200200F074FC41
:10488000FFF72EFF08BDD0F8203211F0800F06D1BF
:1048900001F07F0103EB411191F82A02704701F00A
:1048A0007F0103EB411191F82A00704708B5D0F859
:1048B000200200F09BF8FFF713FF08BD08B5D0F801
:1048C000200200F017F9FFF70BFF08BD08B5D0F87C
:1048D000200200F0EFF8FFF703FF08BD0048704723
:1048E0007408002070477047002866D0F0B587B084
:1048F000044690F82934C3B1032384F8293420688E
:1049000000F081FC254655F8107B6E460FCD0FC692
:104910002B683360231D0ECB384600F064FC002169
:10492000206800F07AFC002315E080F82834FFF7B7
:10493000E1FEE1E704EB4312012182F8291082F83D
:1049400028309386002182F82B109163D1639A1C42
:104950005201A15001330E2BECD9002312E004EBDD
:104960004312002182F8291282F82832938682F8B5
:104970002B12C2F83812C2F83C1203F11202520193
:10498000A15001330E2BEAD9254655F8107B6E460F
:104990000FCD0FC62B683360231D0ECB384600F0B9
:1049A0003EFC002584F82450012384F82934206833
:1049B00000F04EFF284607B0F0BD0120704790F888
:1049C0002834012B10D010B50446012180F828149A
:1049D000FFF789FF206800F039FF206800F00AFC2B
:1049E000002084F8280410BD0220704790F8283475
:1049F000012B0DD010B50446012380F8283480F82F
:104A00002410006800F01CFF002084F8280410BD6A
:104A10000220704770B5054608464EB2002E1ADBDC
:104A200001F07F04640104F50A74291900F07F0085
:104A30000870F60F4E700A61CB7095F82834012B80
:104A40000FD0012385F82834286800F0FEFB0020F1
:104A500085F8280470BD01F07F0464012834291909
:104A6000E4E70220F6E710B504460A4648B20028FB
:104A700018DB01F07F035B0103F50A73E11802F014
:104A80007F020A70C00F487094F82834012B0FD0B1
:104A9000012384F82834206800F070FD002084F899
:104AA000280410BD01F07F035B012833E118E6E71D
:104AB0000220F6E770B501F07F04650105F50A7183
:104AC00001440544C5F83C2204F11202560100EBF2
:104AD000421283510023536085F8293285F8284219
:104AE00024B9006800F0CFFE002070BD006800F01F
:104AF000CAFEF9E770B501F07F04650105F12801F0
:104B000001440544EA63A21C560100EB42128351A2
:104B100000235360012385F8293085F8284024B903
:104B2000006800F0B0FE002070BD006800F0ABFE31
:104B3000F9E770B582B004460023ADF80630ADF851
:104B4000043099E103889BB223F4E14323F070031E
:104B50009BB203802268B2F850309BB294F82810C0
:104B600003EBC103023302EB4303D3F80034C3F376
:104B700009036364E26B1344E36300212046FFF7FB
:104B8000EBFD94F82430002B00F07681236C002B91
:104B900040F0728194F82430226843F08003A2F838
:104BA0004C30002384F8243066E1B0F850309BB2DA
:104BB00094F8282203EBC203063300EB4303D3F837
:104BC0000034C3F30903C4F84432B4F82C2204F2CD
:104BD0002C4100F0BFFF2268138823F070031B05EF
:104BE0001B0D13802046FFF7A5FD45E1B4F82C22EC
:104BF000D4F83C1200F0AEFFD4F84422D4F83C3292
:104C00001344C4F83C3276E1C1F34F0211F0010FB6
:104C100001D0013292B2920292B2C3F8002488E12C
:104C200030F825309BB2ADF80430BDF8043013F4F1
:104C3000004F36D1BDF8043013F0800F00F01C8116
:104C4000226832F825309BB223F4E14323F070034D
:104C50009BB222F8253004EB451393F83230002B39
:104C600040F0B9802068B0F850309BB204EB451298
:104C700092F8282003EBC203023300EB4303D3F87E
:104C80000034C3F30903AA1C04EB42125360002B47
:104C900000F0D08004EB45118A8DC96B00F0E0FD77
:104CA000C8E030F8253023F070031B051B0D20F8F9
:104CB000253004EB451393F83232DBB92068B0F8A5
:104CC00050309BB204EB451292F8282203EBC2034A
:104CD000063300EB4303B3F80064C6F309068EB352
:104CE00004EB45113346B1F82C22D1F83C1200F008
:104CF00031FF27E0206804EB451393F8282230F8B1
:104D0000223013F4804F46D0B0F850309BB203EB02
:104D1000C203023300EB4303B3F80064C6F3090691
:104D20007EBB226804EB451393F8281232F8213039
:104D300023F0F0031B051B0D43F4004343F0C003B5
:104D400022F8213005F11203590104EB43135A688C
:104D500032445A6004EB4513D3F83C223244C3F882
:104D60003C2263582BB104EB4511D1F838128E4226
:104D700029D204EB451393F828122046FFF7E2FCF2
:104D800058E704EB45113346B1F82E22D1F83C1216
:104D900000F0E0FEC5E7B0F850309BB203EBC20371
:104DA000063300EB4303B3F80064C6F30906002E94
:104DB000B7D004EB45113346B1F83022D1F83C129C
:104DC00000F0C8FEADE704EB451191F8281220462B
:104DD000FFF770FE2EE7206804EB451393F82820B8
:104DE00030F8223013F0400F00F0B980B0F85030A6
:104DF0009BB203EBC203023300EB4303D3F800344E
:104E0000C3F30903AA1C04EB42125360002B40F0C9
:104E10009F80226804EB451393F8281032F8213064
:104E200023F0F0031B051B0D43F4404343F08003C4
:104E300022F821302268B2F850309BB204EB4511C1
:104E400091F8280003EBC003023302EB4303D3F8CD
:104E50000024C2F30902AB1C580104EB43135A604F
:104E6000CB6B1A44CA632358002B40F0928091F810
:104E700028102046FFF770FC2068B0F844309BB241
:104E8000ADF8063013F4004F00F08B80BDF80650EB
:104E900015F00F057FF4C4AEBDF8063013F0100F07
:104EA0003FF450AE03889BB2ADF80430BDF8043037
:104EB00013F4006F7FF479AEBDF8043013F4004FA3
:104EC000DAD0038823F070031B051B0D03802068D4
:104ED000B0F850309BB294F8282203EBC20306339B
:104EE00000EB4303D3F80034C3F30903C4F844329E
:104EF000002B7FF47BAE00212046FFF723FC2268C5
:104F0000B2F850309BB2063302EB4303D4F83812A8
:104F10003E297FF679AEC1F34F1211F01F0F01D178
:104F2000013A92B26FEAC2626FEA524292B2C3F899
:104F30000024226813889BB223F4804323F070037B
:104F400083F4405343F4004343F08003138093E71A
:104F500004EB4511CA8DC96B00F082FC59E7B0F82B
:104F600050309BB203EBC203063300EB4303D3F88C
:104F70000034C3F30903AA1C04EB42125360002B54
:104F80003FF447AF04EB45110A8EC96B00F068FC93
:104F90003FE704EB451595F828102046FFF7AAFDDA
:104FA0006AE7002002B070BD10B50446006800F04A
:104FB00051FC10F4004F45D1206800F04BFC10F478
:104FC000806F43D1206800F045FC10F4804F08D07A
:104FD0002268B2F844309BB223F480439BB2A2F81B
:104FE0004430206800F036FC10F4005F08D02268DE
:104FF000B2F844309BB223F400539BB2A2F8443081
:10500000206800F027FC10F4805F30D1206800F0A9
:1050100021FC10F4006F49D1206800F01BFC10F453
:10502000007F66D1206800F015FC10F4807F08D066
:105030002268B2F844309BB223F480739BB2A2F88A
:10504000443010BD2046FFF774FDB5E72268B2F882
:1050500044309BB223F480639BB2A2F844302046D4
:10506000FFF789FB00212046FFF7C0FCAAE7226872
:10507000B2F840309BB223F004039BB2A2F8403058
:105080002268B2F840309BB223F008039BB2A2F82A
:1050900040302046FFF792FB2268B2F844309BB2C2
:1050A00023F480539BB2A2F84430AFE72268B2F8F1
:1050B00040309BB243F00803A2F840302268B2F8B7
:1050C00044309BB223F400639BB2A2F844302268C0
:1050D000B2F840309BB243F00403A2F8403020689D
:1050E00000F0B8FB10F4805F96D12046FFF756FB26
:1050F00092E72268B2F844309BB223F400739BB26B
:10510000A2F844302046FFF730FB8BE738B5044661
:105110000A4648B2002819DB4B0103F50A73E1186F
:1051200001238B7002F07F050D70C00F487094F85A
:105130002834012B16D0012384F82834206800F08D
:10514000FFFA4DB1002084F8280438BD01F07F0338
:105150005B012833E118E3E704F22C41206800F0FA
:105160007DFBEFE70220F0E710B504460A4648B29F
:10517000002818DB4B0103F50A73E11800238B703C
:1051800002F07F020A70C00F487094F82834012B97
:105190000FD0012384F82834206800F008FB002099
:1051A00084F8280410BD01F07F035B012833E11867
:1051B000E4E70220F6E711F0800F09D001F07F014B
:1051C00049012831014442B98A728B80002070471E
:1051D000490101F50A710144F5E701228A72CB8089
:1051E0001B0C0B81F2E784B001A880E80E000020C0
:1051F00004B07047B0F840309BB243F43F43A0F88E
:10520000403000207047B0F8403023F474535B0402
:105210005B0CA0F84030002070470020704784B03D
:1052200038B505AD85E80E000123A0F84030002513
:10523000A0F84050A0F84450A0F85050FFF7DAFF13
:105240002846BDE8384004B0704710B4CB78032B33
:105250000FD8DFE803F0026E55610A7830F822308B
:105260009BB223F4EC4323F0700343F4007320F863
:1052700022300A7830F8223023F0F0031B051B0D92
:10528000134343F4004343F0800320F822308B7A29
:10529000002B40F0B2804B78002B57D08A88520800
:1052A000B0F850309BB20C7803EBC40300EB43031F
:1052B0005200C3F800240A7830F8223013F0400F6F
:1052C0000BD030F8223023F0F0031B051B0D43F404
:1052D000004343F0C00320F822300A7830F822302F
:1052E0009BB223F4E04323F0400383F0200343F414
:1052F000004343F0800320F82230002010BC7047A8
:105300000A7830F822309BB223F4EC4323F0700388
:105310009BB220F82230ACE70A7830F822309BB2FA
:1053200023F4EC4323F0700343F4C06320F82230ED
:105330009FE70A7830F822309BB223F4EC4323F045
:10534000700343F4806320F8223092E78A88520881
:10535000B0F850309BB20C7803EBC403043300EB7D
:1053600043035200C3F80024B0F850309BB20A78CF
:1053700003EBC203063300EB43030C693E2C30D928
:10538000C4F34F1214F01F0F01D1013A92B26FEA29
:10539000C2626FEA524292B2C3F800240A7830F82F
:1053A000223013F4804F0BD030F8223023F0F0037A
:1053B0001B051B0D43F4404343F0800320F82230CB
:1053C0000A7830F822309BB223F4804323F0700334
:1053D00083F4405343F4004343F0800320F8223029
:1053E0008BE7C4F34F0214F0010F01D0013292B2E7
:1053F000920292B2C3F80024D0E70A7830F8223043
:1054000023F4F8731B051B0D43F4014343F08003A1
:1054100020F82230CA885208B0F850309BB20C787D
:1054200003EBC40300EB43035200C3F800240A89D2
:105430005208B0F850309BB20C7803EBC40304332D
:1054400000EB43035200C3F800244B78002B4BD1F0
:105450000A7830F8223013F4804F0BD030F8223025
:1054600023F0F0031B051B0D43F4404343F080037E
:1054700020F822300A7830F8223013F0400F0BD099
:1054800030F8223023F0F0031B051B0D43F40043DA
:1054900043F0C00320F822300A7830F8223023F09D
:1054A000F0031B051B0D43F4004343F0C00320F839
:1054B00022300A7830F822309BB223F4804323F064
:1054C000700383F4405348F28004234320F82230D1
:1054D0000A7830F822309BB223F4E04323F04003F3
:1054E000234320F8223008E70A7830F8223013F4FA
:1054F000804F0BD030F8223023F0F0031B051B0D3A
:1055000043F4404343F0800320F822300A7830F817
:10551000223013F0400F0BD030F8223023F0F0038C
:105520001B051B0D43F4004343F0C00320F8223059
:105530000A7830F8223023F0F0031B051B0D43F4EA
:10554000404343F0800320F822300B7830F82320CA
:1055500092B222F4E04222F0400248F28004224358
:1055600020F823200A7830F822309BB223F48043BD
:1055700023F07003234320F82230BEE68B7A002B01
:1055800044D14B780BB30A7830F8223013F0400F37
:105590000BD030F8223023F0F0031B051B0D43F431
:1055A000004343F0C00320F822300A7830F822305C
:1055B0009BB223F4E04323F0400343F4004343F061
:1055C000800320F82230002070470A7830F822301B
:1055D00013F4804F0BD030F8223023F0F0031B057A
:1055E0001B0D43F4404343F0800320F822300A7837
:1055F00030F822309BB223F4804323F0700343F44D
:10560000004343F0800320F82230DCE710B44B78ED
:10561000002B4BD10A7830F8223013F4804F0BD096
:1056200030F8223023F0F0031B051B0D43F44043F8
:1056300043F0800320F822300A7830F8223013F04B
:10564000400F0BD030F8223023F0F0031B051B0D68
:1056500043F4004343F0C00320F822300A7830F8C6
:10566000223023F0F0031B051B0D43F4004343F0ED
:10567000C00320F822300B7830F8232092B222F4B5
:10568000804222F0700248F28004224320F8232056
:105690000A7830F822309BB223F4E04323F0400331
:1056A000234320F82230002010BC70470A7830F8DD
:1056B000223013F4804F0BD030F8223023F0F00367
:1056C0001B051B0D43F4404343F0800320F82230B8
:1056D0000A7830F8223013F0400F0BD030F8223027
:1056E00023F0F0031B051B0D43F4004343F0C003FC
:1056F00020F822300A7830F8223023F0F0031B051E
:105700001B0D43F4404343F0800320F822300B7814
:1057100030F8232092B222F4E04222F0400248F214
:105720008004224320F823200A7830F822309BB2EC
:1057300023F4804323F07003234320F82230B2E7A0
:105740000A7892B930F822309BB223F4804323F0D8
:10575000400383F4805383F0100343F4004343F089
:10576000800320F82230002070474B787BB130F85E
:1057700022309BB223F4E04323F0400383F0100374
:1057800043F4004343F0800320F82230EBE730F885
:1057900022309BB223F4804323F0700383F48053C0
:1057A00043F4004343F0800320F82230DBE74B78DA
:1057B0001BB30A7830F8223013F0400F0BD030F8CA
:1057C000223023F0F0031B051B0D43F4004343F08C
:1057D000C00320F822300A7830F822309BB223F43C
:1057E000E04323F0400383F0300343F4004343F0ED
:1057F000800320F82230002070470A7830F82230E9
:1058000013F4804F0BD030F8223023F0F0031B0547
:105810001B0D43F4404343F0800320F822300A7804
:1058200030F822309BB223F4804323F0700383F4DA
:10583000405343F4004343F0800320F82230DAE77A
:1058400011B98023A0F84C30002070470020704729
:1058500000207047B0F8440080B2704700207047C5
:1058600010B45C1C641000EB420202F5806244B18B
:105870000B78487843EA002322F8043B0231013CCC
:10588000F5E710BC704770B505460C468A69497843
:10589000012935D02369934280F0EF80D21AA261AA
:1058A000A27A002A40F0F980B5F8502092B221780F
:1058B00002EBC102063205EB42023E2B40F2E180D0
:1058C000C3F34F1113F01F0F01D1013989B26FEAF1
:1058D000C1616FEA514189B2C2F80014227835F8EB
:1058E00022309BB223F4804323F0700383F44053AF
:1058F00043F4004343F0800325F82230002070BDBC
:105900002669964224D2921BA261A37A23B32378FC
:1059100035F8232012F0400F6DD000293AD1B5F8A8
:10592000502092B202EBC303063305EB43033E2E35
:1059300024D9C6F34F1216F01F0F01D1013A92B2CB
:105940006FEAC2626FEA524292B2C3F800242BE0BF
:105950000023A3611646D8E7B3B2A288616928463E
:10596000FFF77EFFB5F850309BB2227803EBC203FD
:10597000023305EB4303C3F800642BE0C6F34F0288
:1059800016F0010F01D0013292B2920292B2C3F826
:10599000002409E0B5F8502092B202EBC3030233B1
:1059A00005EB4303C3F800642289B3B2616928465A
:1059B000FFF756FF6378002B4FD1227835F822305D
:1059C00023F0F0031B051B0D43F4004343F0C00319
:1059D00025F82230227835F822309BB223F4E043B8
:1059E00023F0400383F0300343F4004343F080038B
:1059F00025F8223082E721BBB5F8502092B202EBA5
:105A0000C303023305EB43033E2E0ED9C6F34F12F8
:105A100016F01F0F01D1013A92B26FEAC2626FEA2B
:105A2000524292B2C3F8002415E0C6F34F0216F0BA
:105A3000010F01D0013292B2920292B2C3F8002457
:105A400009E0B5F8502092B202EBC303023305EB34
:105A50004303C3F80064E288A7E7012BBAD1227898
:105A600035F8223023F0F0031B051B0D43F44043AF
:105A700043F0800325F82230ACE70023A3611346EE
:105A80000EE7C3F34F0113F0010F01D0013189B2CA
:105A9000890289B2C2F8001420E7C1B9B5F85020D4
:105AA00092B2217802EBC102023205EB42023E2B98
:105AB00029D9C3F34F1113F01F0F01D1013989B256
:105AC0006FEAC1616FEA514189B2C2F8001462788D
:105AD0008ABBB5F8502092B2217802EBC10206329F
